{
  "contractName": "DoctorAppointment",
  "abi": [
    {
      "inputs": [
        {
          "internalType": "uint256",
          "name": "",
          "type": "uint256"
        }
      ],
      "name": "appointments",
      "outputs": [
        {
          "internalType": "address",
          "name": "doctor",
          "type": "address"
        },
        {
          "internalType": "address",
          "name": "patient",
          "type": "address"
        },
        {
          "internalType": "uint256",
          "name": "time",
          "type": "uint256"
        },
        {
          "internalType": "string",
          "name": "date",
          "type": "string"
        },
        {
          "internalType": "string",
          "name": "name",
          "type": "string"
        }
      ],
      "stateMutability": "view",
      "type": "function",
      "constant": true
    },
    {
      "inputs": [
        {
          "internalType": "address",
          "name": "",
          "type": "address"
        },
        {
          "internalType": "string",
          "name": "",
          "type": "string"
        },
        {
          "internalType": "uint256",
          "name": "",
          "type": "uint256"
        }
      ],
      "name": "doctorSchedule",
      "outputs": [
        {
          "internalType": "uint256",
          "name": "",
          "type": "uint256"
        }
      ],
      "stateMutability": "view",
      "type": "function",
      "constant": true
    },
    {
      "inputs": [
        {
          "internalType": "address",
          "name": "_doctorAddress",
          "type": "address"
        },
        {
          "internalType": "string",
          "name": "_date",
          "type": "string"
        },
        {
          "internalType": "uint256",
          "name": "_time",
          "type": "uint256"
        },
        {
          "internalType": "address",
          "name": "_patientAddress",
          "type": "address"
        },
        {
          "internalType": "string",
          "name": "_name",
          "type": "string"
        }
      ],
      "name": "bookAppointment",
      "outputs": [],
      "stateMutability": "nonpayable",
      "type": "function"
    },
    {
      "inputs": [
        {
          "internalType": "address",
          "name": "_doctorAddress",
          "type": "address"
        }
      ],
      "name": "getAppointmentsForDoctor",
      "outputs": [
        {
          "components": [
            {
              "internalType": "address",
              "name": "doctor",
              "type": "address"
            },
            {
              "internalType": "address",
              "name": "patient",
              "type": "address"
            },
            {
              "internalType": "uint256",
              "name": "time",
              "type": "uint256"
            },
            {
              "internalType": "string",
              "name": "date",
              "type": "string"
            },
            {
              "internalType": "string",
              "name": "name",
              "type": "string"
            }
          ],
          "internalType": "struct DoctorAppointment.Appointment[]",
          "name": "",
          "type": "tuple[]"
        }
      ],
      "stateMutability": "view",
      "type": "function",
      "constant": true
    },
    {
      "inputs": [
        {
          "internalType": "address",
          "name": "_doctorAddress",
          "type": "address"
        },
        {
          "internalType": "string",
          "name": "_date",
          "type": "string"
        }
      ],
      "name": "getBookedSlotsForDoctor",
      "outputs": [
        {
          "internalType": "uint256[]",
          "name": "",
          "type": "uint256[]"
        }
      ],
      "stateMutability": "view",
      "type": "function",
      "constant": true
    },
    {
      "inputs": [
        {
          "internalType": "address",
          "name": "_doctorAddress",
          "type": "address"
        },
        {
          "internalType": "string",
          "name": "_date",
          "type": "string"
        },
        {
          "internalType": "uint256",
          "name": "_time",
          "type": "uint256"
        }
      ],
      "name": "removeAppointment",
      "outputs": [],
      "stateMutability": "nonpayable",
      "type": "function"
    }
  ],
  "bytecode": "0x608060405234801561001057600080fd5b50611e25806100206000396000f3fe608060405234801561001057600080fd5b50600436106100625760003560e01c806312dc9013146100675780631c688f5d1461009b578063beb54453146100cb578063d81f638c146100e7578063df16a3a414610103578063f961501314610133575b600080fd5b610081600480360381019061007c9190610ff0565b610163565b6040516100929594939291906110fd565b60405180910390f35b6100b560048036038101906100b091906112bf565b6102f9565b6040516100c291906113d9565b60405180910390f35b6100e560048036038101906100e091906113fb565b6103ac565b005b61010160048036038101906100fc919061146a565b61085e565b005b61011d600480360381019061011891906113fb565b610ab8565b60405161012a919061151d565b60405180910390f35b61014d60048036038101906101489190611538565b610b0c565b60405161015a91906116fd565b60405180910390f35b6001818154811061017357600080fd5b90600052602060002090600502016000915090508060000160009054906101000a900473ffffffffffffffffffffffffffffffffffffffff16908060010160009054906101000a900473ffffffffffffffffffffffffffffffffffffffff16908060020154908060030180546101e89061174e565b80601f01602080910402602001604051908101604052809291908181526020018280546102149061174e565b80156102615780601f1061023657610100808354040283529160200191610261565b820191906000526020600020905b81548152906001019060200180831161024457829003601f168201915b5050505050908060040180546102769061174e565b80601f01602080910402602001604051908101604052809291908181526020018280546102a29061174e565b80156102ef5780601f106102c4576101008083540402835291602001916102ef565b820191906000526020600020905b8154815290600101906020018083116102d257829003601f168201915b5050505050905085565b60606000808473ffffffffffffffffffffffffffffffffffffffff1673ffffffffffffffffffffffffffffffffffffffff1681526020019081526020016000208260405161034791906117bb565b908152602001604051809103902080548060200260200160405190810160405280929190818152602001828054801561039f57602002820191906000526020600020905b81548152602001906001019080831161038b575b5050505050905092915050565b60008060008573ffffffffffffffffffffffffffffffffffffffff1673ffffffffffffffffffffffffffffffffffffffff168152602001908152602001600020836040516103fa91906117bb565b908152602001604051809103902090506000805b82805490508110156104d0578383828154811061042e5761042d6117d2565b5b9060005260206000200154036104bd5782600184805490506104509190611830565b81548110610461576104606117d2565b5b906000526020600020015483828154811061047f5761047e6117d2565b5b90600052602060002001819055508280548061049e5761049d611864565b5b60019003818190600052602060002001600090559055600191506104d0565b80806104c890611893565b91505061040e565b5080610511576040517f08c379a00000000000000000000000000000000000000000000000000000000081526004016105089061194d565b60405180910390fd5b60005b600180549050811015610856578573ffffffffffffffffffffffffffffffffffffffff166001828154811061054c5761054b6117d2565b5b906000526020600020906005020160000160009054906101000a900473ffffffffffffffffffffffffffffffffffffffff1673ffffffffffffffffffffffffffffffffffffffff161480156106105750846040516020016105ad91906117bb565b60405160208183030381529060405280519060200120600182815481106105d7576105d66117d2565b5b90600052602060002090600502016003016040516020016105f89190611a05565b60405160208183030381529060405280519060200120145b80156106405750836001828154811061062c5761062b6117d2565b5b906000526020600020906005020160020154145b156108435760018080805490506106579190611830565b81548110610668576106676117d2565b5b90600052602060002090600502016001828154811061068a576106896117d2565b5b90600052602060002090600502016000820160009054906101000a900473ffffffffffffffffffffffffffffffffffffffff168160000160006101000a81548173ffffffffffffffffffffffffffffffffffffffff021916908373ffffffffffffffffffffffffffffffffffffffff1602179055506001820160009054906101000a900473ffffffffffffffffffffffffffffffffffffffff168160010160006101000a81548173ffffffffffffffffffffffffffffffffffffffff021916908373ffffffffffffffffffffffffffffffffffffffff16021790555060028201548160020155600382018160030190816107849190611bc9565b50600482018160040190816107999190611bc9565b5090505060018054806107af576107ae611864565b5b6001900381819060005260206000209060050201600080820160006101000a81549073ffffffffffffffffffffffffffffffffffffffff02191690556001820160006101000a81549073ffffffffffffffffffffffffffffffffffffffff0219169055600282016000905560038201600061082a9190610eee565b60048201600061083a9190610eee565b50509055610856565b808061084e90611893565b915050610514565b505050505050565b60008060008773ffffffffffffffffffffffffffffffffffffffff1673ffffffffffffffffffffffffffffffffffffffff168152602001908152602001600020856040516108ac91906117bb565b9081526020016040518091039020905060005b818054905081101561093d57848282815481106108df576108de6117d2565b5b90600052602060002001540361092a576040517f08c379a000000000000000000000000000000000000000000000000000000000815260040161092190611cfd565b60405180910390fd5b808061093590611893565b9150506108bf565b508084908060018154018082558091505060019003906000526020600020016000909190919091505560006040518060a001604052808873ffffffffffffffffffffffffffffffffffffffff1681526020018573ffffffffffffffffffffffffffffffffffffffff168152602001868152602001878152602001848152509050600181908060018154018082558091505060019003906000526020600020906005020160009091909190915060008201518160000160006101000a81548173ffffffffffffffffffffffffffffffffffffffff021916908373ffffffffffffffffffffffffffffffffffffffff16021790555060208201518160010160006101000a81548173ffffffffffffffffffffffffffffffffffffffff021916908373ffffffffffffffffffffffffffffffffffffffff160217905550604082015181600201556060820151816003019081610a969190611d1d565b506080820151816004019081610aac9190611d1d565b50505050505050505050565b6000602052826000526040600020828051602081018201805184825260208301602085012081835280955050505050508181548110610af657600080fd5b9060005260206000200160009250925050505481565b60606000805b600180549050811015610bb9578373ffffffffffffffffffffffffffffffffffffffff1660018281548110610b4a57610b496117d2565b5b906000526020600020906005020160000160009054906101000a900473ffffffffffffffffffffffffffffffffffffffff1673ffffffffffffffffffffffffffffffffffffffff1603610ba6578180610ba290611893565b9250505b8080610bb190611893565b915050610b12565b5060008167ffffffffffffffff811115610bd657610bd5611194565b5b604051908082528060200260200182016040528015610c0f57816020015b610bfc610f2e565b815260200190600190039081610bf45790505b5090506000805b600180549050811015610ee2578573ffffffffffffffffffffffffffffffffffffffff1660018281548110610c4e57610c4d6117d2565b5b906000526020600020906005020160000160009054906101000a900473ffffffffffffffffffffffffffffffffffffffff1673ffffffffffffffffffffffffffffffffffffffff1603610ecf5760018181548110610caf57610cae6117d2565b5b90600052602060002090600502016040518060a00160405290816000820160009054906101000a900473ffffffffffffffffffffffffffffffffffffffff1673ffffffffffffffffffffffffffffffffffffffff1673ffffffffffffffffffffffffffffffffffffffff1681526020016001820160009054906101000a900473ffffffffffffffffffffffffffffffffffffffff1673ffffffffffffffffffffffffffffffffffffffff1673ffffffffffffffffffffffffffffffffffffffff16815260200160028201548152602001600382018054610d8e9061174e565b80601f0160208091040260200160405190810160405280929190818152602001828054610dba9061174e565b8015610e075780601f10610ddc57610100808354040283529160200191610e07565b820191906000526020600020905b815481529060010190602001808311610dea57829003601f168201915b50505050508152602001600482018054610e209061174e565b80601f0160208091040260200160405190810160405280929190818152602001828054610e4c9061174e565b8015610e995780601f10610e6e57610100808354040283529160200191610e99565b820191906000526020600020905b815481529060010190602001808311610e7c57829003601f168201915b505050505081525050838381518110610eb557610eb46117d2565b5b60200260200101819052508180610ecb90611893565b9250505b8080610eda90611893565b915050610c16565b50819350505050919050565b508054610efa9061174e565b6000825580601f10610f0c5750610f2b565b601f016020900490600052602060002090810190610f2a9190610f89565b5b50565b6040518060a00160405280600073ffffffffffffffffffffffffffffffffffffffff168152602001600073ffffffffffffffffffffffffffffffffffffffff1681526020016000815260200160608152602001606081525090565b5b80821115610fa2576000816000905550600101610f8a565b5090565b6000604051905090565b600080fd5b600080fd5b6000819050919050565b610fcd81610fba565b8114610fd857600080fd5b50565b600081359050610fea81610fc4565b92915050565b60006020828403121561100657611005610fb0565b5b600061101484828501610fdb565b91505092915050565b600073ffffffffffffffffffffffffffffffffffffffff82169050919050565b60006110488261101d565b9050919050565b6110588161103d565b82525050565b61106781610fba565b82525050565b600081519050919050565b600082825260208201905092915050565b60005b838110156110a757808201518184015260208101905061108c565b60008484015250505050565b6000601f19601f8301169050919050565b60006110cf8261106d565b6110d98185611078565b93506110e9818560208601611089565b6110f2816110b3565b840191505092915050565b600060a082019050611112600083018861104f565b61111f602083018761104f565b61112c604083018661105e565b818103606083015261113e81856110c4565b9050818103608083015261115281846110c4565b90509695505050505050565b6111678161103d565b811461117257600080fd5b50565b6000813590506111848161115e565b92915050565b600080fd5b600080fd5b7f4e487b7100000000000000000000000000000000000000000000000000000000600052604160045260246000fd5b6111cc826110b3565b810181811067ffffffffffffffff821117156111eb576111ea611194565b5b80604052505050565b60006111fe610fa6565b905061120a82826111c3565b919050565b600067ffffffffffffffff82111561122a57611229611194565b5b611233826110b3565b9050602081019050919050565b82818337600083830152505050565b600061126261125d8461120f565b6111f4565b90508281526020810184848401111561127e5761127d61118f565b5b611289848285611240565b509392505050565b600082601f8301126112a6576112a561118a565b5b81356112b684826020860161124f565b91505092915050565b600080604083850312156112d6576112d5610fb0565b5b60006112e485828601611175565b925050602083013567ffffffffffffffff81111561130557611304610fb5565b5b61131185828601611291565b9150509250929050565b600081519050919050565b600082825260208201905092915050565b6000819050602082019050919050565b61135081610fba565b82525050565b60006113628383611347565b60208301905092915050565b6000602082019050919050565b60006113868261131b565b6113908185611326565b935061139b83611337565b8060005b838110156113cc5781516113b38882611356565b97506113be8361136e565b92505060018101905061139f565b5085935050505092915050565b600060208201905081810360008301526113f3818461137b565b905092915050565b60008060006060848603121561141457611413610fb0565b5b600061142286828701611175565b935050602084013567ffffffffffffffff81111561144357611442610fb5565b5b61144f86828701611291565b925050604061146086828701610fdb565b9150509250925092565b600080600080600060a0868803121561148657611485610fb0565b5b600061149488828901611175565b955050602086013567ffffffffffffffff8111156114b5576114b4610fb5565b5b6114c188828901611291565b94505060406114d288828901610fdb565b93505060606114e388828901611175565b925050608086013567ffffffffffffffff81111561150457611503610fb5565b5b61151088828901611291565b9150509295509295909350565b6000602082019050611532600083018461105e565b92915050565b60006020828403121561154e5761154d610fb0565b5b600061155c84828501611175565b91505092915050565b600081519050919050565b600082825260208201905092915050565b6000819050602082019050919050565b61159a8161103d565b82525050565b600082825260208201905092915050565b60006115bc8261106d565b6115c681856115a0565b93506115d6818560208601611089565b6115df816110b3565b840191505092915050565b600060a0830160008301516116026000860182611591565b5060208301516116156020860182611591565b5060408301516116286040860182611347565b506060830151848203606086015261164082826115b1565b9150506080830151848203608086015261165a82826115b1565b9150508091505092915050565b600061167383836115ea565b905092915050565b6000602082019050919050565b600061169382611565565b61169d8185611570565b9350836020820285016116af85611581565b8060005b858110156116eb57848403895281516116cc8582611667565b94506116d78361167b565b925060208a019950506001810190506116b3565b50829750879550505050505092915050565b600060208201905081810360008301526117178184611688565b905092915050565b7f4e487b7100000000000000000000000000000000000000000000000000000000600052602260045260246000fd5b6000600282049050600182168061176657607f821691505b6020821081036117795761177861171f565b5b50919050565b600081905092915050565b60006117958261106d565b61179f818561177f565b93506117af818560208601611089565b80840191505092915050565b60006117c7828461178a565b915081905092915050565b7f4e487b7100000000000000000000000000000000000000000000000000000000600052603260045260246000fd5b7f4e487b7100000000000000000000000000000000000000000000000000000000600052601160045260246000fd5b600061183b82610fba565b915061184683610fba565b925082820390508181111561185e5761185d611801565b5b92915050565b7f4e487b7100000000000000000000000000000000000000000000000000000000600052603160045260246000fd5b600061189e82610fba565b91507fffffffffffffffffffffffffffffffffffffffffffffffffffffffffffffffff82036118d0576118cf611801565b5b600182019050919050565b7f4e6f206170706f696e746d656e7420666f756e6420666f72207468652067697660008201527f656e206461746520616e642074696d652e000000000000000000000000000000602082015250565b6000611937603183611078565b9150611942826118db565b604082019050919050565b600060208201905081810360008301526119668161192a565b9050919050565b60008190508160005260206000209050919050565b6000815461198f8161174e565b611999818661177f565b945060018216600081146119b457600181146119c9576119fc565b60ff19831686528115158202860193506119fc565b6119d28561196d565b60005b838110156119f4578154818901526001820191506020810190506119d5565b838801955050505b50505092915050565b6000611a118284611982565b915081905092915050565b600081549050611a2b8161174e565b9050919050565b60006020601f8301049050919050565b600082821b905092915050565b600060088302611a7f7fffffffffffffffffffffffffffffffffffffffffffffffffffffffffffffffff82611a42565b611a898683611a42565b95508019841693508086168417925050509392505050565b6000819050919050565b6000611ac6611ac1611abc84610fba565b611aa1565b610fba565b9050919050565b6000819050919050565b611ae083611aab565b611af4611aec82611acd565b848454611a4f565b825550505050565b600090565b611b09611afc565b611b14818484611ad7565b505050565b5b81811015611b3857611b2d600082611b01565b600181019050611b1a565b5050565b601f821115611b7d57611b4e8161196d565b611b5784611a32565b81016020851015611b66578190505b611b7a611b7285611a32565b830182611b19565b50505b505050565b600082821c905092915050565b6000611ba060001984600802611b82565b1980831691505092915050565b6000611bb98383611b8f565b9150826002028217905092915050565b818103611bd7575050611caf565b611be082611a1c565b67ffffffffffffffff811115611bf957611bf8611194565b5b611c03825461174e565b611c0e828285611b3c565b6000601f831160018114611c3d5760008415611c2b578287015490505b611c358582611bad565b865550611ca8565b601f198416611c4b8761196d565b9650611c568661196d565b60005b82811015611c7e57848901548255600182019150600185019450602081019050611c59565b86831015611c9b5784890154611c97601f891682611b8f565b8355505b6001600288020188555050505b5050505050505b565b7f5468697320736c6f7420697320616c726561647920626f6f6b65642100000000600082015250565b6000611ce7601c83611078565b9150611cf282611cb1565b602082019050919050565b60006020820190508181036000830152611d1681611cda565b9050919050565b611d268261106d565b67ffffffffffffffff811115611d3f57611d3e611194565b5b611d49825461174e565b611d54828285611b3c565b600060209050601f831160018114611d875760008415611d75578287015190505b611d7f8582611bad565b865550611de7565b601f198416611d958661196d565b60005b82811015611dbd57848901518255600182019150602085019450602081019050611d98565b86831015611dda5784890151611dd6601f891682611b8f565b8355505b6001600288020188555050505b50505050505056fea26469706673582212206543b242f94108f62a09dd1aa92533b36bece1614b637a308f4ed8b51a20ca7964736f6c63430008130033",
  "immutableReferences": {},
  "source": "// SPDX-License-Identifier: MIT\r\npragma solidity ^0.8.19;\r\n\r\ncontract DoctorAppointment {\r\n    struct Appointment {\r\n        address doctor;\r\n        address patient;\r\n        uint256 time;\r\n        string date;\r\n        string name;\r\n    }\r\n\r\n    // A mapping from doctor's address and date to the array of booked times.\r\n    mapping(address => mapping(string => uint256[])) public doctorSchedule;\r\n\r\n    // A list of all appointments.\r\n    Appointment[] public appointments;\r\n\r\n    function bookAppointment(\r\n        address _doctorAddress,\r\n        string memory _date,\r\n        uint256 _time,\r\n        address _patientAddress,\r\n        string memory _name\r\n    ) public {\r\n        uint256[] storage times = doctorSchedule[_doctorAddress][_date];\r\n        for (uint i = 0; i < times.length; i++) {\r\n            require(times[i] != _time, \"This slot is already booked!\");\r\n        }\r\n\r\n        times.push(_time);\r\n\r\n        Appointment memory newAppointment = Appointment({\r\n            doctor: _doctorAddress,\r\n            patient: _patientAddress,\r\n            time: _time,\r\n            date: _date,\r\n            name: _name\r\n        });\r\n\r\n        appointments.push(newAppointment);\r\n    }\r\n\r\n    function getAppointmentsForDoctor(\r\n        address _doctorAddress\r\n    ) public view returns (Appointment[] memory) {\r\n        uint count = 0;\r\n        for (uint i = 0; i < appointments.length; i++) {\r\n            if (appointments[i].doctor == _doctorAddress) {\r\n                count++;\r\n            }\r\n        }\r\n\r\n        Appointment[] memory doctorAppointments = new Appointment[](count);\r\n        uint j = 0;\r\n        for (uint i = 0; i < appointments.length; i++) {\r\n            if (appointments[i].doctor == _doctorAddress) {\r\n                doctorAppointments[j] = appointments[i];\r\n                j++;\r\n            }\r\n        }\r\n        return doctorAppointments;\r\n    }\r\n\r\n    // Additional function to fetch booked slots for a doctor on a specific date\r\n    function getBookedSlotsForDoctor(\r\n        address _doctorAddress,\r\n        string memory _date\r\n    ) public view returns (uint256[] memory) {\r\n        return doctorSchedule[_doctorAddress][_date];\r\n    }\r\n\r\n    function removeAppointment(\r\n        address _doctorAddress,\r\n        string memory _date,\r\n        uint256 _time\r\n    ) public {\r\n        uint256[] storage times = doctorSchedule[_doctorAddress][_date];\r\n        bool timeFound = false;\r\n        for (uint i = 0; i < times.length; i++) {\r\n            if (times[i] == _time) {\r\n                times[i] = times[times.length - 1];\r\n                times.pop();\r\n                timeFound = true;\r\n                break;\r\n            }\r\n        }\r\n\r\n        require(timeFound, \"No appointment found for the given date and time.\");\r\n\r\n        // Removing the appointment from the appointments array\r\n        for (uint i = 0; i < appointments.length; i++) {\r\n            if (\r\n                appointments[i].doctor == _doctorAddress &&\r\n                keccak256(abi.encodePacked(appointments[i].date)) ==\r\n                keccak256(abi.encodePacked(_date)) &&\r\n                appointments[i].time == _time\r\n            ) {\r\n                appointments[i] = appointments[appointments.length - 1];\r\n                appointments.pop();\r\n                break;\r\n            }\r\n        }\r\n    }\r\n}\r\n",
  "sourcePath": "D:\\final-project4\\src\\contracts\\DoctorAppointment.sol",
  "compiler": {
    "name": "solc",
    "version": "0.8.19+commit.7dd6d404.Emscripten.clang"
  },
  "schemaVersion": "3.4.13",
  "updatedAt": "2023-11-07T09:18:39.407Z",
  "networkType": "ethereum",
  "devdoc": {
    "kind": "dev",
    "methods": {},
    "version": 1
  },
  "userdoc": {
    "kind": "user",
    "methods": {},
    "version": 1
  }
}