{
  "contractName": "DoctorRegistration",
  "abi": [
    {
      "anonymous": false,
      "inputs": [
        {
          "indexed": true,
          "internalType": "address",
          "name": "doctorAddress",
          "type": "address"
        },
        {
          "indexed": false,
          "internalType": "string",
          "name": "doctorName",
          "type": "string"
        }
      ],
      "name": "DoctorRegistered",
      "type": "event"
    },
    {
      "inputs": [
        {
          "internalType": "address",
          "name": "_doctorAddress",
          "type": "address"
        },
        {
          "internalType": "string",
          "name": "_doctorName",
          "type": "string"
        },
        {
          "internalType": "string",
          "name": "_hospitalName",
          "type": "string"
        },
        {
          "internalType": "string",
          "name": "_dateOfBirth",
          "type": "string"
        },
        {
          "internalType": "string",
          "name": "_gender",
          "type": "string"
        },
        {
          "internalType": "string",
          "name": "_phoneNumber",
          "type": "string"
        },
        {
          "internalType": "string",
          "name": "_specialization",
          "type": "string"
        },
        {
          "internalType": "string",
          "name": "_department",
          "type": "string"
        },
        {
          "internalType": "string",
          "name": "_designation",
          "type": "string"
        },
        {
          "internalType": "string",
          "name": "_workExperience",
          "type": "string"
        }
      ],
      "name": "registerDoctor",
      "outputs": [],
      "stateMutability": "nonpayable",
      "type": "function"
    },
    {
      "inputs": [
        {
          "internalType": "address",
          "name": "_doctorAddress",
          "type": "address"
        }
      ],
      "name": "getDoctorDetails",
      "outputs": [
        {
          "components": [
            {
              "internalType": "address",
              "name": "doctorAddress",
              "type": "address"
            },
            {
              "internalType": "string",
              "name": "doctorName",
              "type": "string"
            },
            {
              "internalType": "string",
              "name": "hospitalName",
              "type": "string"
            },
            {
              "internalType": "string",
              "name": "dateOfBirth",
              "type": "string"
            },
            {
              "internalType": "string",
              "name": "gender",
              "type": "string"
            },
            {
              "internalType": "string",
              "name": "phoneNumber",
              "type": "string"
            },
            {
              "internalType": "string",
              "name": "specialization",
              "type": "string"
            },
            {
              "internalType": "string",
              "name": "department",
              "type": "string"
            },
            {
              "internalType": "string",
              "name": "designation",
              "type": "string"
            },
            {
              "internalType": "string",
              "name": "workExperience",
              "type": "string"
            }
          ],
          "internalType": "struct DoctorRegistration.Doctor",
          "name": "",
          "type": "tuple"
        }
      ],
      "stateMutability": "view",
      "type": "function",
      "constant": true
    },
    {
      "inputs": [
        {
          "internalType": "address",
          "name": "_doctorAddress",
          "type": "address"
        }
      ],
      "name": "isRegisteredDoctor",
      "outputs": [
        {
          "internalType": "bool",
          "name": "",
          "type": "bool"
        }
      ],
      "stateMutability": "view",
      "type": "function",
      "constant": true
    }
  ],
  "bytecode": "0x608060405234801561001057600080fd5b506113f0806100206000396000f3fe608060405234801561001057600080fd5b50600436106100415760003560e01c806397bff33814610046578063bab90dbd14610076578063d4953627146100a6575b600080fd5b610060600480360381019061005b9190610ab4565b6100c2565b60405161006d9190610afc565b60405180910390f35b610090600480360381019061008b9190610ab4565b610118565b60405161009d9190610cc8565b60405180910390f35b6100c060048036038101906100bb9190610e1f565b6106e9565b005b6000600160008373ffffffffffffffffffffffffffffffffffffffff1673ffffffffffffffffffffffffffffffffffffffff16815260200190815260200160002060009054906101000a900460ff169050919050565b6101206109d9565b6000808373ffffffffffffffffffffffffffffffffffffffff1673ffffffffffffffffffffffffffffffffffffffff168152602001908152602001600020604051806101400160405290816000820160009054906101000a900473ffffffffffffffffffffffffffffffffffffffff1673ffffffffffffffffffffffffffffffffffffffff1673ffffffffffffffffffffffffffffffffffffffff1681526020016001820180546101d090611029565b80601f01602080910402602001604051908101604052809291908181526020018280546101fc90611029565b80156102495780601f1061021e57610100808354040283529160200191610249565b820191906000526020600020905b81548152906001019060200180831161022c57829003601f168201915b5050505050815260200160028201805461026290611029565b80601f016020809104026020016040519081016040528092919081815260200182805461028e90611029565b80156102db5780601f106102b0576101008083540402835291602001916102db565b820191906000526020600020905b8154815290600101906020018083116102be57829003601f168201915b505050505081526020016003820180546102f490611029565b80601f016020809104026020016040519081016040528092919081815260200182805461032090611029565b801561036d5780601f106103425761010080835404028352916020019161036d565b820191906000526020600020905b81548152906001019060200180831161035057829003601f168201915b5050505050815260200160048201805461038690611029565b80601f01602080910402602001604051908101604052809291908181526020018280546103b290611029565b80156103ff5780601f106103d4576101008083540402835291602001916103ff565b820191906000526020600020905b8154815290600101906020018083116103e257829003601f168201915b5050505050815260200160058201805461041890611029565b80601f016020809104026020016040519081016040528092919081815260200182805461044490611029565b80156104915780601f1061046657610100808354040283529160200191610491565b820191906000526020600020905b81548152906001019060200180831161047457829003601f168201915b505050505081526020016006820180546104aa90611029565b80601f01602080910402602001604051908101604052809291908181526020018280546104d690611029565b80156105235780601f106104f857610100808354040283529160200191610523565b820191906000526020600020905b81548152906001019060200180831161050657829003601f168201915b5050505050815260200160078201805461053c90611029565b80601f016020809104026020016040519081016040528092919081815260200182805461056890611029565b80156105b55780601f1061058a576101008083540402835291602001916105b5565b820191906000526020600020905b81548152906001019060200180831161059857829003601f168201915b505050505081526020016008820180546105ce90611029565b80601f01602080910402602001604051908101604052809291908181526020018280546105fa90611029565b80156106475780601f1061061c57610100808354040283529160200191610647565b820191906000526020600020905b81548152906001019060200180831161062a57829003601f168201915b5050505050815260200160098201805461066090611029565b80601f016020809104026020016040519081016040528092919081815260200182805461068c90611029565b80156106d95780601f106106ae576101008083540402835291602001916106d9565b820191906000526020600020905b8154815290600101906020018083116106bc57829003601f168201915b5050505050815250509050919050565b600160008b73ffffffffffffffffffffffffffffffffffffffff1673ffffffffffffffffffffffffffffffffffffffff16815260200190815260200160002060009054906101000a900460ff1615610776576040517f08c379a000000000000000000000000000000000000000000000000000000000815260040161076d906110b7565b60405180910390fd5b60006040518061014001604052808c73ffffffffffffffffffffffffffffffffffffffff1681526020018b81526020018a8152602001898152602001888152602001878152602001868152602001858152602001848152602001838152509050806000808d73ffffffffffffffffffffffffffffffffffffffff1673ffffffffffffffffffffffffffffffffffffffff16815260200190815260200160002060008201518160000160006101000a81548173ffffffffffffffffffffffffffffffffffffffff021916908373ffffffffffffffffffffffffffffffffffffffff1602179055506020820151816001019081610871919061128d565b506040820151816002019081610887919061128d565b50606082015181600301908161089d919061128d565b5060808201518160040190816108b3919061128d565b5060a08201518160050190816108c9919061128d565b5060c08201518160060190816108df919061128d565b5060e08201518160070190816108f5919061128d565b5061010082015181600801908161090c919061128d565b50610120820151816009019081610923919061128d565b5090505060018060008d73ffffffffffffffffffffffffffffffffffffffff1673ffffffffffffffffffffffffffffffffffffffff16815260200190815260200160002060006101000a81548160ff0219169083151502179055508a73ffffffffffffffffffffffffffffffffffffffff167f20481b8112b5bf4734f45a473c373db9df6a79ce946cdc0e7dbc22b4f7d7f9868b6040516109c49190611398565b60405180910390a25050505050505050505050565b604051806101400160405280600073ffffffffffffffffffffffffffffffffffffffff1681526020016060815260200160608152602001606081526020016060815260200160608152602001606081526020016060815260200160608152602001606081525090565b6000604051905090565b600080fd5b600080fd5b600073ffffffffffffffffffffffffffffffffffffffff82169050919050565b6000610a8182610a56565b9050919050565b610a9181610a76565b8114610a9c57600080fd5b50565b600081359050610aae81610a88565b92915050565b600060208284031215610aca57610ac9610a4c565b5b6000610ad884828501610a9f565b91505092915050565b60008115159050919050565b610af681610ae1565b82525050565b6000602082019050610b116000830184610aed565b92915050565b610b2081610a76565b82525050565b600081519050919050565b600082825260208201905092915050565b60005b83811015610b60578082015181840152602081019050610b45565b60008484015250505050565b6000601f19601f8301169050919050565b6000610b8882610b26565b610b928185610b31565b9350610ba2818560208601610b42565b610bab81610b6c565b840191505092915050565b600061014083016000830151610bcf6000860182610b17565b5060208301518482036020860152610be78282610b7d565b91505060408301518482036040860152610c018282610b7d565b91505060608301518482036060860152610c1b8282610b7d565b91505060808301518482036080860152610c358282610b7d565b91505060a083015184820360a0860152610c4f8282610b7d565b91505060c083015184820360c0860152610c698282610b7d565b91505060e083015184820360e0860152610c838282610b7d565b915050610100830151848203610100860152610c9f8282610b7d565b915050610120830151848203610120860152610cbb8282610b7d565b9150508091505092915050565b60006020820190508181036000830152610ce28184610bb6565b905092915050565b600080fd5b600080fd5b7f4e487b7100000000000000000000000000000000000000000000000000000000600052604160045260246000fd5b610d2c82610b6c565b810181811067ffffffffffffffff82111715610d4b57610d4a610cf4565b5b80604052505050565b6000610d5e610a42565b9050610d6a8282610d23565b919050565b600067ffffffffffffffff821115610d8a57610d89610cf4565b5b610d9382610b6c565b9050602081019050919050565b82818337600083830152505050565b6000610dc2610dbd84610d6f565b610d54565b905082815260208101848484011115610dde57610ddd610cef565b5b610de9848285610da0565b509392505050565b600082601f830112610e0657610e05610cea565b5b8135610e16848260208601610daf565b91505092915050565b6000806000806000806000806000806101408b8d031215610e4357610e42610a4c565b5b6000610e518d828e01610a9f565b9a505060208b013567ffffffffffffffff811115610e7257610e71610a51565b5b610e7e8d828e01610df1565b99505060408b013567ffffffffffffffff811115610e9f57610e9e610a51565b5b610eab8d828e01610df1565b98505060608b013567ffffffffffffffff811115610ecc57610ecb610a51565b5b610ed88d828e01610df1565b97505060808b013567ffffffffffffffff811115610ef957610ef8610a51565b5b610f058d828e01610df1565b96505060a08b013567ffffffffffffffff811115610f2657610f25610a51565b5b610f328d828e01610df1565b95505060c08b013567ffffffffffffffff811115610f5357610f52610a51565b5b610f5f8d828e01610df1565b94505060e08b013567ffffffffffffffff811115610f8057610f7f610a51565b5b610f8c8d828e01610df1565b9350506101008b013567ffffffffffffffff811115610fae57610fad610a51565b5b610fba8d828e01610df1565b9250506101208b013567ffffffffffffffff811115610fdc57610fdb610a51565b5b610fe88d828e01610df1565b9150509295989b9194979a5092959850565b7f4e487b7100000000000000000000000000000000000000000000000000000000600052602260045260246000fd5b6000600282049050600182168061104157607f821691505b60208210810361105457611053610ffa565b5b50919050565b600082825260208201905092915050565b7f446f63746f7220616c7265616479207265676973746572656400000000000000600082015250565b60006110a160198361105a565b91506110ac8261106b565b602082019050919050565b600060208201905081810360008301526110d081611094565b9050919050565b60008190508160005260206000209050919050565b60006020601f8301049050919050565b600082821b905092915050565b6000600883026111397fffffffffffffffffffffffffffffffffffffffffffffffffffffffffffffffff826110fc565b61114386836110fc565b95508019841693508086168417925050509392505050565b6000819050919050565b6000819050919050565b600061118a6111856111808461115b565b611165565b61115b565b9050919050565b6000819050919050565b6111a48361116f565b6111b86111b082611191565b848454611109565b825550505050565b600090565b6111cd6111c0565b6111d881848461119b565b505050565b5b818110156111fc576111f16000826111c5565b6001810190506111de565b5050565b601f82111561124157611212816110d7565b61121b846110ec565b8101602085101561122a578190505b61123e611236856110ec565b8301826111dd565b50505b505050565b600082821c905092915050565b600061126460001984600802611246565b1980831691505092915050565b600061127d8383611253565b9150826002028217905092915050565b61129682610b26565b67ffffffffffffffff8111156112af576112ae610cf4565b5b6112b98254611029565b6112c4828285611200565b600060209050601f8311600181146112f757600084156112e5578287015190505b6112ef8582611271565b865550611357565b601f198416611305866110d7565b60005b8281101561132d57848901518255600182019150602085019450602081019050611308565b8683101561134a5784890151611346601f891682611253565b8355505b6001600288020188555050505b505050505050565b600061136a82610b26565b611374818561105a565b9350611384818560208601610b42565b61138d81610b6c565b840191505092915050565b600060208201905081810360008301526113b2818461135f565b90509291505056fea264697066735822122051452ed5fee3f7e84de219cbb904aeca6481cc8e38c76244875d29284881a04e64736f6c63430008130033",
  "immutableReferences": {},
  "source": "// SPDX-License-Identifier: MIT\r\npragma solidity ^0.8.19;\r\n\r\ncontract DoctorRegistration {\r\n    struct Doctor {\r\n        address doctorAddress; // Add the Ethereum address to the struct\r\n        string doctorName;\r\n        string hospitalName;\r\n        string dateOfBirth;\r\n        string gender;\r\n        string phoneNumber;\r\n        string specialization;\r\n        string department;\r\n        string designation;\r\n        string workExperience;\r\n    }\r\n\r\n    mapping(address => Doctor) private doctors;\r\n    mapping(address => bool) private isDoctorRegistered;\r\n\r\n    event DoctorRegistered(address indexed doctorAddress, string doctorName);\r\n\r\n    function registerDoctor(\r\n        address _doctorAddress,\r\n        string memory _doctorName,\r\n        string memory _hospitalName,\r\n        string memory _dateOfBirth,\r\n        string memory _gender,\r\n        string memory _phoneNumber,\r\n        string memory _specialization,\r\n        string memory _department,\r\n        string memory _designation,\r\n        string memory _workExperience\r\n    ) external {\r\n        require(\r\n            !isDoctorRegistered[_doctorAddress],\r\n            \"Doctor already registered\"\r\n        );\r\n\r\n        Doctor memory newDoctor = Doctor({\r\n            doctorAddress: _doctorAddress,\r\n            doctorName: _doctorName,\r\n            hospitalName: _hospitalName,\r\n            dateOfBirth: _dateOfBirth,\r\n            gender: _gender,\r\n            phoneNumber: _phoneNumber,\r\n            specialization: _specialization,\r\n            department: _department,\r\n            designation: _designation,\r\n            workExperience: _workExperience\r\n        });\r\n\r\n        doctors[_doctorAddress] = newDoctor;\r\n        isDoctorRegistered[_doctorAddress] = true;\r\n\r\n        emit DoctorRegistered(_doctorAddress, _doctorName);\r\n    }\r\n\r\n    function getDoctorDetails(\r\n        address _doctorAddress\r\n    ) external view returns (Doctor memory) {\r\n        return doctors[_doctorAddress];\r\n    }\r\n\r\n    function isRegisteredDoctor(\r\n        address _doctorAddress\r\n    ) external view returns (bool) {\r\n        return isDoctorRegistered[_doctorAddress];\r\n    }\r\n}\r\n",
  "sourcePath": "D:\\final-project4\\src\\contracts\\DoctorRegistration.sol",
  "compiler": {
    "name": "solc",
    "version": "0.8.19+commit.7dd6d404.Emscripten.clang"
  },
  "schemaVersion": "3.4.13",
  "updatedAt": "2023-11-07T09:18:38.318Z",
  "networkType": "ethereum",
  "devdoc": {
    "kind": "dev",
    "methods": {},
    "version": 1
  },
  "userdoc": {
    "kind": "user",
    "methods": {},
    "version": 1
  }
}