{
  "contractName": "InsurerRegistry",
  "abi": [
    {
      "anonymous": false,
      "inputs": [
        {
          "indexed": true,
          "internalType": "address",
          "name": "insurerAddress",
          "type": "address"
        },
        {
          "indexed": false,
          "internalType": "string",
          "name": "name",
          "type": "string"
        }
      ],
      "name": "InsurerRegistered",
      "type": "event"
    },
    {
      "inputs": [
        {
          "internalType": "address",
          "name": "_insurerAddress",
          "type": "address"
        },
        {
          "internalType": "string",
          "name": "_name",
          "type": "string"
        },
        {
          "internalType": "string",
          "name": "_registrationNumber",
          "type": "string"
        },
        {
          "internalType": "string",
          "name": "_officeAddress",
          "type": "string"
        },
        {
          "internalType": "string",
          "name": "_phoneNumber",
          "type": "string"
        }
      ],
      "name": "registerInsurer",
      "outputs": [],
      "stateMutability": "nonpayable",
      "type": "function"
    },
    {
      "inputs": [
        {
          "internalType": "address",
          "name": "_insurerAddress",
          "type": "address"
        }
      ],
      "name": "getInsurerDetails",
      "outputs": [
        {
          "components": [
            {
              "internalType": "address",
              "name": "insurerAddress",
              "type": "address"
            },
            {
              "internalType": "string",
              "name": "name",
              "type": "string"
            },
            {
              "internalType": "string",
              "name": "registrationNumber",
              "type": "string"
            },
            {
              "internalType": "string",
              "name": "officeAddress",
              "type": "string"
            },
            {
              "internalType": "string",
              "name": "phoneNumber",
              "type": "string"
            }
          ],
          "internalType": "struct InsurerRegistry.Insurer",
          "name": "",
          "type": "tuple"
        }
      ],
      "stateMutability": "view",
      "type": "function",
      "constant": true
    },
    {
      "inputs": [
        {
          "internalType": "address",
          "name": "_insurerAddress",
          "type": "address"
        }
      ],
      "name": "isRegisteredInsurer",
      "outputs": [
        {
          "internalType": "bool",
          "name": "",
          "type": "bool"
        }
      ],
      "stateMutability": "view",
      "type": "function",
      "constant": true
    }
  ],
  "bytecode": "0x608060405234801561001057600080fd5b50610ee6806100206000396000f3fe608060405234801561001057600080fd5b50600436106100415760003560e01c80630c6c0c25146100465780634b1939a31461006257806379a47ef514610092575b600080fd5b610060600480360381019061005b9190610867565b6100c2565b005b61007c60048036038101906100779190610952565b61031e565b604051610089919061099a565b60405180910390f35b6100ac60048036038101906100a79190610952565b610374565b6040516100b99190610ace565b60405180910390f35b600160008673ffffffffffffffffffffffffffffffffffffffff1673ffffffffffffffffffffffffffffffffffffffff16815260200190815260200160002060009054906101000a900460ff161561014f576040517f08c379a000000000000000000000000000000000000000000000000000000000815260040161014690610b4d565b60405180910390fd5b60006040518060a001604052808773ffffffffffffffffffffffffffffffffffffffff168152602001868152602001858152602001848152602001838152509050806000808873ffffffffffffffffffffffffffffffffffffffff1673ffffffffffffffffffffffffffffffffffffffff16815260200190815260200160002060008201518160000160006101000a81548173ffffffffffffffffffffffffffffffffffffffff021916908373ffffffffffffffffffffffffffffffffffffffff160217905550602082015181600101908161022b9190610d83565b5060408201518160020190816102419190610d83565b5060608201518160030190816102579190610d83565b50608082015181600401908161026d9190610d83565b5090505060018060008873ffffffffffffffffffffffffffffffffffffffff1673ffffffffffffffffffffffffffffffffffffffff16815260200190815260200160002060006101000a81548160ff0219169083151502179055508573ffffffffffffffffffffffffffffffffffffffff167f400252d873f599d48fe29b4d6f06f0ca2804f1bc03fecff90345767fbfac60a18660405161030e9190610e8e565b60405180910390a2505050505050565b6000600160008373ffffffffffffffffffffffffffffffffffffffff1673ffffffffffffffffffffffffffffffffffffffff16815260200190815260200160002060009054906101000a900460ff169050919050565b61037c61066a565b6000808373ffffffffffffffffffffffffffffffffffffffff1673ffffffffffffffffffffffffffffffffffffffff1681526020019081526020016000206040518060a00160405290816000820160009054906101000a900473ffffffffffffffffffffffffffffffffffffffff1673ffffffffffffffffffffffffffffffffffffffff1673ffffffffffffffffffffffffffffffffffffffff16815260200160018201805461042b90610b9c565b80601f016020809104026020016040519081016040528092919081815260200182805461045790610b9c565b80156104a45780601f10610479576101008083540402835291602001916104a4565b820191906000526020600020905b81548152906001019060200180831161048757829003601f168201915b505050505081526020016002820180546104bd90610b9c565b80601f01602080910402602001604051908101604052809291908181526020018280546104e990610b9c565b80156105365780601f1061050b57610100808354040283529160200191610536565b820191906000526020600020905b81548152906001019060200180831161051957829003601f168201915b5050505050815260200160038201805461054f90610b9c565b80601f016020809104026020016040519081016040528092919081815260200182805461057b90610b9c565b80156105c85780601f1061059d576101008083540402835291602001916105c8565b820191906000526020600020905b8154815290600101906020018083116105ab57829003601f168201915b505050505081526020016004820180546105e190610b9c565b80601f016020809104026020016040519081016040528092919081815260200182805461060d90610b9c565b801561065a5780601f1061062f5761010080835404028352916020019161065a565b820191906000526020600020905b81548152906001019060200180831161063d57829003601f168201915b5050505050815250509050919050565b6040518060a00160405280600073ffffffffffffffffffffffffffffffffffffffff168152602001606081526020016060815260200160608152602001606081525090565b6000604051905090565b600080fd5b600080fd5b600073ffffffffffffffffffffffffffffffffffffffff82169050919050565b60006106ee826106c3565b9050919050565b6106fe816106e3565b811461070957600080fd5b50565b60008135905061071b816106f5565b92915050565b600080fd5b600080fd5b6000601f19601f8301169050919050565b7f4e487b7100000000000000000000000000000000000000000000000000000000600052604160045260246000fd5b6107748261072b565b810181811067ffffffffffffffff821117156107935761079261073c565b5b80604052505050565b60006107a66106af565b90506107b2828261076b565b919050565b600067ffffffffffffffff8211156107d2576107d161073c565b5b6107db8261072b565b9050602081019050919050565b82818337600083830152505050565b600061080a610805846107b7565b61079c565b90508281526020810184848401111561082657610825610726565b5b6108318482856107e8565b509392505050565b600082601f83011261084e5761084d610721565b5b813561085e8482602086016107f7565b91505092915050565b600080600080600060a08688031215610883576108826106b9565b5b60006108918882890161070c565b955050602086013567ffffffffffffffff8111156108b2576108b16106be565b5b6108be88828901610839565b945050604086013567ffffffffffffffff8111156108df576108de6106be565b5b6108eb88828901610839565b935050606086013567ffffffffffffffff81111561090c5761090b6106be565b5b61091888828901610839565b925050608086013567ffffffffffffffff811115610939576109386106be565b5b61094588828901610839565b9150509295509295909350565b600060208284031215610968576109676106b9565b5b60006109768482850161070c565b91505092915050565b60008115159050919050565b6109948161097f565b82525050565b60006020820190506109af600083018461098b565b92915050565b6109be816106e3565b82525050565b600081519050919050565b600082825260208201905092915050565b60005b838110156109fe5780820151818401526020810190506109e3565b60008484015250505050565b6000610a15826109c4565b610a1f81856109cf565b9350610a2f8185602086016109e0565b610a388161072b565b840191505092915050565b600060a083016000830151610a5b60008601826109b5565b5060208301518482036020860152610a738282610a0a565b91505060408301518482036040860152610a8d8282610a0a565b91505060608301518482036060860152610aa78282610a0a565b91505060808301518482036080860152610ac18282610a0a565b9150508091505092915050565b60006020820190508181036000830152610ae88184610a43565b905092915050565b600082825260208201905092915050565b7f496e737572657220616c72656164792072656769737465726564000000000000600082015250565b6000610b37601a83610af0565b9150610b4282610b01565b602082019050919050565b60006020820190508181036000830152610b6681610b2a565b9050919050565b7f4e487b7100000000000000000000000000000000000000000000000000000000600052602260045260246000fd5b60006002820490506001821680610bb457607f821691505b602082108103610bc757610bc6610b6d565b5b50919050565b60008190508160005260206000209050919050565b60006020601f8301049050919050565b600082821b905092915050565b600060088302610c2f7fffffffffffffffffffffffffffffffffffffffffffffffffffffffffffffffff82610bf2565b610c398683610bf2565b95508019841693508086168417925050509392505050565b6000819050919050565b6000819050919050565b6000610c80610c7b610c7684610c51565b610c5b565b610c51565b9050919050565b6000819050919050565b610c9a83610c65565b610cae610ca682610c87565b848454610bff565b825550505050565b600090565b610cc3610cb6565b610cce818484610c91565b505050565b5b81811015610cf257610ce7600082610cbb565b600181019050610cd4565b5050565b601f821115610d3757610d0881610bcd565b610d1184610be2565b81016020851015610d20578190505b610d34610d2c85610be2565b830182610cd3565b50505b505050565b600082821c905092915050565b6000610d5a60001984600802610d3c565b1980831691505092915050565b6000610d738383610d49565b9150826002028217905092915050565b610d8c826109c4565b67ffffffffffffffff811115610da557610da461073c565b5b610daf8254610b9c565b610dba828285610cf6565b600060209050601f831160018114610ded5760008415610ddb578287015190505b610de58582610d67565b865550610e4d565b601f198416610dfb86610bcd565b60005b82811015610e2357848901518255600182019150602085019450602081019050610dfe565b86831015610e405784890151610e3c601f891682610d49565b8355505b6001600288020188555050505b505050505050565b6000610e60826109c4565b610e6a8185610af0565b9350610e7a8185602086016109e0565b610e838161072b565b840191505092915050565b60006020820190508181036000830152610ea88184610e55565b90509291505056fea26469706673582212208f738f4bb2789fb4825fa59ca0e3c78b29bd7ec9ab124b82075975e6048973eb64736f6c63430008130033",
  "immutableReferences": {},
  "source": "// SPDX-License-Identifier: MIT\r\npragma solidity ^0.8.19;\r\n\r\ncontract InsurerRegistry {\r\n    struct Insurer {\r\n        address insurerAddress; // Add the Ethereum address to the struct\r\n        string name;\r\n        string registrationNumber;\r\n        string officeAddress;\r\n        string phoneNumber;\r\n    }\r\n\r\n    mapping(address => Insurer) private insurers;\r\n    mapping(address => bool) private isInsurerRegistered;\r\n\r\n    event InsurerRegistered(address indexed insurerAddress, string name);\r\n\r\n    function registerInsurer(\r\n        address _insurerAddress,\r\n        string memory _name,\r\n        string memory _registrationNumber,\r\n        string memory _officeAddress,\r\n        string memory _phoneNumber\r\n    ) external {\r\n        require(\r\n            !isInsurerRegistered[_insurerAddress],\r\n            \"Insurer already registered\"\r\n        );\r\n\r\n        Insurer memory newInsurer = Insurer({\r\n            insurerAddress: _insurerAddress,\r\n            name: _name,\r\n            registrationNumber: _registrationNumber,\r\n            officeAddress: _officeAddress,\r\n            phoneNumber: _phoneNumber\r\n        });\r\n\r\n        insurers[_insurerAddress] = newInsurer;\r\n        isInsurerRegistered[_insurerAddress] = true;\r\n\r\n        emit InsurerRegistered(_insurerAddress, _name);\r\n    }\r\n\r\n    function getInsurerDetails(\r\n        address _insurerAddress\r\n    ) external view returns (Insurer memory) {\r\n        return insurers[_insurerAddress];\r\n    }\r\n\r\n    function isRegisteredInsurer(\r\n        address _insurerAddress\r\n    ) external view returns (bool) {\r\n        return isInsurerRegistered[_insurerAddress];\r\n    }\r\n}\r\n",
  "sourcePath": "D:\\final-project4\\src\\contracts\\InsurerRegistry.sol",
  "compiler": {
    "name": "solc",
    "version": "0.8.19+commit.7dd6d404.Emscripten.clang"
  },
  "schemaVersion": "3.4.13",
  "updatedAt": "2023-11-07T09:18:38.963Z",
  "networkType": "ethereum",
  "devdoc": {
    "kind": "dev",
    "methods": {},
    "version": 1
  },
  "userdoc": {
    "kind": "user",
    "methods": {},
    "version": 1
  }
}