{
  "contractName": "InsuranceClaims",
  "abi": [
    {
      "inputs": [
        {
          "internalType": "string",
          "name": "claimid",
          "type": "string"
        },
        {
          "internalType": "string",
          "name": "patientName",
          "type": "string"
        },
        {
          "internalType": "address",
          "name": "patientAddress",
          "type": "address"
        },
        {
          "internalType": "address",
          "name": "InsurerAddress",
          "type": "address"
        },
        {
          "internalType": "string",
          "name": "plan",
          "type": "string"
        },
        {
          "internalType": "string",
          "name": "documents",
          "type": "string"
        },
        {
          "internalType": "int256",
          "name": "amount",
          "type": "int256"
        },
        {
          "internalType": "bool",
          "name": "processed",
          "type": "bool"
        },
        {
          "internalType": "string",
          "name": "paid",
          "type": "string"
        }
      ],
      "name": "createClaim",
      "outputs": [],
      "stateMutability": "nonpayable",
      "type": "function"
    },
    {
      "inputs": [],
      "name": "getClaims",
      "outputs": [
        {
          "components": [
            {
              "internalType": "string",
              "name": "claimid",
              "type": "string"
            },
            {
              "internalType": "string",
              "name": "patientName",
              "type": "string"
            },
            {
              "internalType": "address",
              "name": "patientAddress",
              "type": "address"
            },
            {
              "internalType": "address",
              "name": "InsurerAddress",
              "type": "address"
            },
            {
              "internalType": "string",
              "name": "plan",
              "type": "string"
            },
            {
              "internalType": "string",
              "name": "documents",
              "type": "string"
            },
            {
              "internalType": "int256",
              "name": "amount",
              "type": "int256"
            },
            {
              "internalType": "bool",
              "name": "processed",
              "type": "bool"
            },
            {
              "internalType": "string",
              "name": "paid",
              "type": "string"
            }
          ],
          "internalType": "struct InsuranceClaims.Claim[]",
          "name": "",
          "type": "tuple[]"
        }
      ],
      "stateMutability": "view",
      "type": "function",
      "constant": true
    },
    {
      "inputs": [
        {
          "internalType": "string",
          "name": "claimid",
          "type": "string"
        },
        {
          "internalType": "bool",
          "name": "newProcessedStatus",
          "type": "bool"
        }
      ],
      "name": "changeProcessed",
      "outputs": [],
      "stateMutability": "nonpayable",
      "type": "function"
    },
    {
      "inputs": [
        {
          "internalType": "string",
          "name": "claimid",
          "type": "string"
        },
        {
          "internalType": "string",
          "name": "newPaidStatus",
          "type": "string"
        }
      ],
      "name": "changePaid",
      "outputs": [],
      "stateMutability": "nonpayable",
      "type": "function"
    }
  ],
  "bytecode": "0x608060405234801561001057600080fd5b506114c3806100206000396000f3fe608060405234801561001057600080fd5b506004361061004c5760003560e01c80631253ec5314610051578063c52822f81461006d578063f12730a81461008b578063f167be69146100a7575b600080fd5b61006b60048036038101906100669190610b77565b6100c3565b005b6100756102d2565b6040516100829190610f1c565b60405180910390f35b6100a560048036038101906100a09190610f3e565b610719565b005b6100c160048036038101906100bc9190610f9a565b61083a565b005b60006040518061012001604052808b81526020018a81526020018973ffffffffffffffffffffffffffffffffffffffff1681526020018873ffffffffffffffffffffffffffffffffffffffff16815260200187815260200186815260200185815260200184151581526020018381525090506000808873ffffffffffffffffffffffffffffffffffffffff1673ffffffffffffffffffffffffffffffffffffffff16815260200190815260200160002081908060018154018082558091505060019003906000526020600020906009020160009091909190915060008201518160000190816101b29190611228565b5060208201518160010190816101c89190611228565b5060408201518160020160006101000a81548173ffffffffffffffffffffffffffffffffffffffff021916908373ffffffffffffffffffffffffffffffffffffffff16021790555060608201518160030160006101000a81548173ffffffffffffffffffffffffffffffffffffffff021916908373ffffffffffffffffffffffffffffffffffffffff160217905550608082015181600401908161026c9190611228565b5060a08201518160050190816102829190611228565b5060c0820151816006015560e08201518160070160006101000a81548160ff0219169083151502179055506101008201518160080190816102c39190611228565b50505050505050505050505050565b60606000803373ffffffffffffffffffffffffffffffffffffffff1673ffffffffffffffffffffffffffffffffffffffff168152602001908152602001600020805480602002602001604051908101604052809291908181526020016000905b8282101561071057838290600052602060002090600902016040518061012001604052908160008201805461036690611041565b80601f016020809104026020016040519081016040528092919081815260200182805461039290611041565b80156103df5780601f106103b4576101008083540402835291602001916103df565b820191906000526020600020905b8154815290600101906020018083116103c257829003601f168201915b505050505081526020016001820180546103f890611041565b80601f016020809104026020016040519081016040528092919081815260200182805461042490611041565b80156104715780601f1061044657610100808354040283529160200191610471565b820191906000526020600020905b81548152906001019060200180831161045457829003601f168201915b505050505081526020016002820160009054906101000a900473ffffffffffffffffffffffffffffffffffffffff1673ffffffffffffffffffffffffffffffffffffffff1673ffffffffffffffffffffffffffffffffffffffff1681526020016003820160009054906101000a900473ffffffffffffffffffffffffffffffffffffffff1673ffffffffffffffffffffffffffffffffffffffff1673ffffffffffffffffffffffffffffffffffffffff16815260200160048201805461053690611041565b80601f016020809104026020016040519081016040528092919081815260200182805461056290611041565b80156105af5780601f10610584576101008083540402835291602001916105af565b820191906000526020600020905b81548152906001019060200180831161059257829003601f168201915b505050505081526020016005820180546105c890611041565b80601f01602080910402602001604051908101604052809291908181526020018280546105f490611041565b80156106415780601f1061061657610100808354040283529160200191610641565b820191906000526020600020905b81548152906001019060200180831161062457829003601f168201915b50505050508152602001600682015481526020016007820160009054906101000a900460ff1615151515815260200160088201805461067f90611041565b80601f01602080910402602001604051908101604052809291908181526020018280546106ab90611041565b80156106f85780601f106106cd576101008083540402835291602001916106f8565b820191906000526020600020905b8154815290600101906020018083116106db57829003601f168201915b50505050508152505081526020019060010190610332565b50505050905090565b60008060003373ffffffffffffffffffffffffffffffffffffffff1673ffffffffffffffffffffffffffffffffffffffff168152602001908152602001600020905060005b8180549050811015610834578360405160200161077b9190611336565b604051602081830303815290604052805190602001208282815481106107a4576107a361134d565b5b90600052602060002090600902016000016040516020016107c591906113ff565b604051602081830303815290604052805190602001200361082157828282815481106107f4576107f361134d565b5b906000526020600020906009020160070160006101000a81548160ff021916908315150217905550610834565b808061082c90611445565b91505061075e565b50505050565b60008060003373ffffffffffffffffffffffffffffffffffffffff1673ffffffffffffffffffffffffffffffffffffffff168152602001908152602001600020905060005b818054905081101561094b578360405160200161089c9190611336565b604051602081830303815290604052805190602001208282815481106108c5576108c461134d565b5b90600052602060002090600902016000016040516020016108e691906113ff565b604051602081830303815290604052805190602001200361093857828282815481106109155761091461134d565b5b906000526020600020906009020160080190816109329190611228565b5061094b565b808061094390611445565b91505061087f565b50505050565b6000604051905090565b600080fd5b600080fd5b600080fd5b600080fd5b6000601f19601f8301169050919050565b7f4e487b7100000000000000000000000000000000000000000000000000000000600052604160045260246000fd5b6109b88261096f565b810181811067ffffffffffffffff821117156109d7576109d6610980565b5b80604052505050565b60006109ea610951565b90506109f682826109af565b919050565b600067ffffffffffffffff821115610a1657610a15610980565b5b610a1f8261096f565b9050602081019050919050565b82818337600083830152505050565b6000610a4e610a49846109fb565b6109e0565b905082815260208101848484011115610a6a57610a6961096a565b5b610a75848285610a2c565b509392505050565b600082601f830112610a9257610a91610965565b5b8135610aa2848260208601610a3b565b91505092915050565b600073ffffffffffffffffffffffffffffffffffffffff82169050919050565b6000610ad682610aab565b9050919050565b610ae681610acb565b8114610af157600080fd5b50565b600081359050610b0381610add565b92915050565b6000819050919050565b610b1c81610b09565b8114610b2757600080fd5b50565b600081359050610b3981610b13565b92915050565b60008115159050919050565b610b5481610b3f565b8114610b5f57600080fd5b50565b600081359050610b7181610b4b565b92915050565b60008060008060008060008060006101208a8c031215610b9a57610b9961095b565b5b60008a013567ffffffffffffffff811115610bb857610bb7610960565b5b610bc48c828d01610a7d565b99505060208a013567ffffffffffffffff811115610be557610be4610960565b5b610bf18c828d01610a7d565b9850506040610c028c828d01610af4565b9750506060610c138c828d01610af4565b96505060808a013567ffffffffffffffff811115610c3457610c33610960565b5b610c408c828d01610a7d565b95505060a08a013567ffffffffffffffff811115610c6157610c60610960565b5b610c6d8c828d01610a7d565b94505060c0610c7e8c828d01610b2a565b93505060e0610c8f8c828d01610b62565b9250506101008a013567ffffffffffffffff811115610cb157610cb0610960565b5b610cbd8c828d01610a7d565b9150509295985092959850929598565b600081519050919050565b600082825260208201905092915050565b6000819050602082019050919050565b600081519050919050565b600082825260208201905092915050565b60005b83811015610d33578082015181840152602081019050610d18565b60008484015250505050565b6000610d4a82610cf9565b610d548185610d04565b9350610d64818560208601610d15565b610d6d8161096f565b840191505092915050565b610d8181610acb565b82525050565b610d9081610b09565b82525050565b610d9f81610b3f565b82525050565b6000610120830160008301518482036000860152610dc38282610d3f565b91505060208301518482036020860152610ddd8282610d3f565b9150506040830151610df26040860182610d78565b506060830151610e056060860182610d78565b5060808301518482036080860152610e1d8282610d3f565b91505060a083015184820360a0860152610e378282610d3f565b91505060c0830151610e4c60c0860182610d87565b5060e0830151610e5f60e0860182610d96565b50610100830151848203610100860152610e798282610d3f565b9150508091505092915050565b6000610e928383610da5565b905092915050565b6000602082019050919050565b6000610eb282610ccd565b610ebc8185610cd8565b935083602082028501610ece85610ce9565b8060005b85811015610f0a5784840389528151610eeb8582610e86565b9450610ef683610e9a565b925060208a01995050600181019050610ed2565b50829750879550505050505092915050565b60006020820190508181036000830152610f368184610ea7565b905092915050565b60008060408385031215610f5557610f5461095b565b5b600083013567ffffffffffffffff811115610f7357610f72610960565b5b610f7f85828601610a7d565b9250506020610f9085828601610b62565b9150509250929050565b60008060408385031215610fb157610fb061095b565b5b600083013567ffffffffffffffff811115610fcf57610fce610960565b5b610fdb85828601610a7d565b925050602083013567ffffffffffffffff811115610ffc57610ffb610960565b5b61100885828601610a7d565b9150509250929050565b7f4e487b7100000000000000000000000000000000000000000000000000000000600052602260045260246000fd5b6000600282049050600182168061105957607f821691505b60208210810361106c5761106b611012565b5b50919050565b60008190508160005260206000209050919050565b60006020601f8301049050919050565b600082821b905092915050565b6000600883026110d47fffffffffffffffffffffffffffffffffffffffffffffffffffffffffffffffff82611097565b6110de8683611097565b95508019841693508086168417925050509392505050565b6000819050919050565b6000819050919050565b600061112561112061111b846110f6565b611100565b6110f6565b9050919050565b6000819050919050565b61113f8361110a565b61115361114b8261112c565b8484546110a4565b825550505050565b600090565b61116861115b565b611173818484611136565b505050565b5b818110156111975761118c600082611160565b600181019050611179565b5050565b601f8211156111dc576111ad81611072565b6111b684611087565b810160208510156111c5578190505b6111d96111d185611087565b830182611178565b50505b505050565b600082821c905092915050565b60006111ff600019846008026111e1565b1980831691505092915050565b600061121883836111ee565b9150826002028217905092915050565b61123182610cf9565b67ffffffffffffffff81111561124a57611249610980565b5b6112548254611041565b61125f82828561119b565b600060209050601f8311600181146112925760008415611280578287015190505b61128a858261120c565b8655506112f2565b601f1984166112a086611072565b60005b828110156112c8578489015182556001820191506020850194506020810190506112a3565b868310156112e557848901516112e1601f8916826111ee565b8355505b6001600288020188555050505b505050505050565b600081905092915050565b600061131082610cf9565b61131a81856112fa565b935061132a818560208601610d15565b80840191505092915050565b60006113428284611305565b915081905092915050565b7f4e487b7100000000000000000000000000000000000000000000000000000000600052603260045260246000fd5b6000815461138981611041565b61139381866112fa565b945060018216600081146113ae57600181146113c3576113f6565b60ff19831686528115158202860193506113f6565b6113cc85611072565b60005b838110156113ee578154818901526001820191506020810190506113cf565b838801955050505b50505092915050565b600061140b828461137c565b915081905092915050565b7f4e487b7100000000000000000000000000000000000000000000000000000000600052601160045260246000fd5b6000611450826110f6565b91507fffffffffffffffffffffffffffffffffffffffffffffffffffffffffffffffff820361148257611481611416565b5b60018201905091905056fea26469706673582212200741601fdc0d00a6a13000924e02973a03fd58ad71ab6fb3c5ad3a5c43df480e64736f6c63430008130033",
  "immutableReferences": {},
  "source": "// SPDX-License-Identifier: MIT\r\npragma solidity ^0.8.19;\r\n\r\ncontract InsuranceClaims {\r\n    struct Claim {\r\n        string claimid;\r\n        string patientName;\r\n        address patientAddress;\r\n        address InsurerAddress;\r\n        string plan;\r\n        string documents;\r\n        int256 amount;\r\n        bool processed;\r\n        string paid;\r\n    }\r\n    mapping(address => Claim[]) private claims;\r\n\r\n    function createClaim(\r\n        string memory claimid,\r\n        string memory patientName,\r\n        address patientAddress,\r\n        address InsurerAddress,\r\n        string memory plan,\r\n        string memory documents,\r\n        int256 amount,\r\n        bool processed,\r\n        string memory paid\r\n    ) public {\r\n        Claim memory newClaim = Claim(\r\n            claimid,\r\n            patientName,\r\n            patientAddress,\r\n            InsurerAddress,\r\n            plan,\r\n            documents,\r\n            amount,\r\n            processed,\r\n            paid\r\n        );\r\n        claims[InsurerAddress].push(newClaim);\r\n    }\r\n\r\n    function getClaims() public view returns (Claim[] memory) {\r\n        return claims[msg.sender];\r\n    }\r\n\r\n    function changeProcessed(\r\n        string memory claimid,\r\n        bool newProcessedStatus\r\n    ) public {\r\n        Claim[] storage insurerClaims = claims[msg.sender];\r\n        for (uint256 i = 0; i < insurerClaims.length; i++) {\r\n            if (\r\n                keccak256(abi.encodePacked(insurerClaims[i].claimid)) ==\r\n                keccak256(abi.encodePacked(claimid))\r\n            ) {\r\n                insurerClaims[i].processed = newProcessedStatus;\r\n                break;\r\n            }\r\n        }\r\n    }\r\n\r\n    function changePaid(\r\n        string memory claimid,\r\n        string memory newPaidStatus\r\n    ) public {\r\n        Claim[] storage insurerClaims = claims[msg.sender];\r\n        for (uint256 i = 0; i < insurerClaims.length; i++) {\r\n            if (\r\n                keccak256(abi.encodePacked(insurerClaims[i].claimid)) ==\r\n                keccak256(abi.encodePacked(claimid))\r\n            ) {\r\n                insurerClaims[i].paid = newPaidStatus;\r\n                break;\r\n            }\r\n        }\r\n    }\r\n}\r\n",
  "sourcePath": "D:\\final-project4\\src\\contracts\\InsuranceClaims.sol",
  "compiler": {
    "name": "solc",
    "version": "0.8.19+commit.7dd6d404.Emscripten.clang"
  },
  "schemaVersion": "3.4.13",
  "updatedAt": "2023-11-07T09:18:39.197Z",
  "networkType": "ethereum",
  "devdoc": {
    "kind": "dev",
    "methods": {},
    "version": 1
  },
  "userdoc": {
    "kind": "user",
    "methods": {},
    "version": 1
  }
}