{
  "contractName": "PatientRegistry",
  "abi": [
    {
      "anonymous": false,
      "inputs": [
        {
          "indexed": true,
          "internalType": "address",
          "name": "patientAddress",
          "type": "address"
        },
        {
          "indexed": false,
          "internalType": "string",
          "name": "name",
          "type": "string"
        }
      ],
      "name": "PatientRegistered",
      "type": "event"
    },
    {
      "inputs": [
        {
          "internalType": "address",
          "name": "",
          "type": "address"
        }
      ],
      "name": "isPatient",
      "outputs": [
        {
          "internalType": "bool",
          "name": "",
          "type": "bool"
        }
      ],
      "stateMutability": "view",
      "type": "function",
      "constant": true
    },
    {
      "inputs": [
        {
          "internalType": "address",
          "name": "",
          "type": "address"
        }
      ],
      "name": "patients",
      "outputs": [
        {
          "internalType": "string",
          "name": "name",
          "type": "string"
        },
        {
          "internalType": "string",
          "name": "dateOfBirth",
          "type": "string"
        },
        {
          "internalType": "string",
          "name": "homeAddress",
          "type": "string"
        },
        {
          "internalType": "string",
          "name": "phoneNumber",
          "type": "string"
        },
        {
          "internalType": "address",
          "name": "walletAddress",
          "type": "address"
        },
        {
          "internalType": "string",
          "name": "gender",
          "type": "string"
        }
      ],
      "stateMutability": "view",
      "type": "function",
      "constant": true
    },
    {
      "inputs": [
        {
          "internalType": "string",
          "name": "_name",
          "type": "string"
        },
        {
          "internalType": "string",
          "name": "_dateOfBirth",
          "type": "string"
        },
        {
          "internalType": "string",
          "name": "_homeAddress",
          "type": "string"
        },
        {
          "internalType": "string",
          "name": "_phoneNumber",
          "type": "string"
        },
        {
          "internalType": "address",
          "name": "_walletAddress",
          "type": "address"
        },
        {
          "internalType": "string",
          "name": "_gender",
          "type": "string"
        }
      ],
      "name": "registerPatient",
      "outputs": [],
      "stateMutability": "nonpayable",
      "type": "function"
    },
    {
      "inputs": [
        {
          "internalType": "address",
          "name": "_walletAddress",
          "type": "address"
        }
      ],
      "name": "isRegisteredPatient",
      "outputs": [
        {
          "internalType": "bool",
          "name": "",
          "type": "bool"
        }
      ],
      "stateMutability": "view",
      "type": "function",
      "constant": true
    },
    {
      "inputs": [
        {
          "internalType": "address",
          "name": "_walletAddress",
          "type": "address"
        }
      ],
      "name": "givepermissioncreate",
      "outputs": [],
      "stateMutability": "nonpayable",
      "type": "function"
    },
    {
      "inputs": [
        {
          "internalType": "address",
          "name": "_walletAddress",
          "type": "address"
        }
      ],
      "name": "revokepermissioncreate",
      "outputs": [],
      "stateMutability": "nonpayable",
      "type": "function"
    },
    {
      "inputs": [
        {
          "internalType": "address",
          "name": "patientaddress",
          "type": "address"
        },
        {
          "internalType": "address",
          "name": "_walletAddress",
          "type": "address"
        }
      ],
      "name": "haspermission",
      "outputs": [
        {
          "internalType": "bool",
          "name": "",
          "type": "bool"
        }
      ],
      "stateMutability": "view",
      "type": "function",
      "constant": true
    }
  ],
  "bytecode": "0x608060405234801561001057600080fd5b506111c7806100206000396000f3fe608060405234801561001057600080fd5b506004361061007d5760003560e01c80633c4f7a9d1161005b5780633c4f7a9d146101035780638f9c79ed14610133578063a7179ee914610163578063ab3ac4ab1461017f5761007d565b806303efe692146100825780630869cfbc1461009e5780632d2760d8146100d3575b600080fd5b61009c60048036038101906100979190610a07565b61019b565b005b6100b860048036038101906100b39190610a07565b610233565b6040516100ca96959493929190610ad3565b60405180910390f35b6100ed60048036038101906100e89190610b57565b610537565b6040516100fa9190610bb2565b60405180910390f35b61011d60048036038101906101189190610a07565b6105cb565b60405161012a9190610bb2565b60405180910390f35b61014d60048036038101906101489190610a07565b610620565b60405161015a9190610bb2565b60405180910390f35b61017d60048036038101906101789190610d02565b610640565b005b61019960048036038101906101949190610a07565b6108fd565b005b6001600260003373ffffffffffffffffffffffffffffffffffffffff1673ffffffffffffffffffffffffffffffffffffffff16815260200190815260200160002060008373ffffffffffffffffffffffffffffffffffffffff1673ffffffffffffffffffffffffffffffffffffffff16815260200190815260200160002060006101000a81548160ff02191690831515021790555050565b600160205280600052604060002060009150905080600001805461025690610e4a565b80601f016020809104026020016040519081016040528092919081815260200182805461028290610e4a565b80156102cf5780601f106102a4576101008083540402835291602001916102cf565b820191906000526020600020905b8154815290600101906020018083116102b257829003601f168201915b5050505050908060010180546102e490610e4a565b80601f016020809104026020016040519081016040528092919081815260200182805461031090610e4a565b801561035d5780601f106103325761010080835404028352916020019161035d565b820191906000526020600020905b81548152906001019060200180831161034057829003601f168201915b50505050509080600201805461037290610e4a565b80601f016020809104026020016040519081016040528092919081815260200182805461039e90610e4a565b80156103eb5780601f106103c0576101008083540402835291602001916103eb565b820191906000526020600020905b8154815290600101906020018083116103ce57829003601f168201915b50505050509080600301805461040090610e4a565b80601f016020809104026020016040519081016040528092919081815260200182805461042c90610e4a565b80156104795780601f1061044e57610100808354040283529160200191610479565b820191906000526020600020905b81548152906001019060200180831161045c57829003601f168201915b5050505050908060040160009054906101000a900473ffffffffffffffffffffffffffffffffffffffff16908060050180546104b490610e4a565b80601f01602080910402602001604051908101604052809291908181526020018280546104e090610e4a565b801561052d5780601f106105025761010080835404028352916020019161052d565b820191906000526020600020905b81548152906001019060200180831161051057829003601f168201915b5050505050905086565b6000600260008473ffffffffffffffffffffffffffffffffffffffff1673ffffffffffffffffffffffffffffffffffffffff16815260200190815260200160002060008373ffffffffffffffffffffffffffffffffffffffff1673ffffffffffffffffffffffffffffffffffffffff16815260200190815260200160002060009054906101000a900460ff16905092915050565b60008060008373ffffffffffffffffffffffffffffffffffffffff1673ffffffffffffffffffffffffffffffffffffffff16815260200190815260200160002060009054906101000a900460ff169050919050565b60006020528060005260406000206000915054906101000a900460ff1681565b8173ffffffffffffffffffffffffffffffffffffffff16600160008473ffffffffffffffffffffffffffffffffffffffff1673ffffffffffffffffffffffffffffffffffffffff16815260200190815260200160002060040160009054906101000a900473ffffffffffffffffffffffffffffffffffffffff1673ffffffffffffffffffffffffffffffffffffffff1603610710576040517f08c379a000000000000000000000000000000000000000000000000000000000815260040161070790610ec7565b60405180910390fd5b60006040518060c001604052808881526020018781526020018681526020018581526020018473ffffffffffffffffffffffffffffffffffffffff16815260200183815250905080600160008573ffffffffffffffffffffffffffffffffffffffff1673ffffffffffffffffffffffffffffffffffffffff16815260200190815260200160002060008201518160000190816107ac919061109d565b5060208201518160010190816107c2919061109d565b5060408201518160020190816107d8919061109d565b5060608201518160030190816107ee919061109d565b5060808201518160040160006101000a81548173ffffffffffffffffffffffffffffffffffffffff021916908373ffffffffffffffffffffffffffffffffffffffff16021790555060a082015181600501908161084b919061109d565b5090505060016000808573ffffffffffffffffffffffffffffffffffffffff1673ffffffffffffffffffffffffffffffffffffffff16815260200190815260200160002060006101000a81548160ff0219169083151502179055508273ffffffffffffffffffffffffffffffffffffffff167fc85b128388b9c331a2a5485dce4cd0f3db9f7c279d327ce95d6d39d6c94644c7886040516108ec919061116f565b60405180910390a250505050505050565b6000600260003373ffffffffffffffffffffffffffffffffffffffff1673ffffffffffffffffffffffffffffffffffffffff16815260200190815260200160002060008373ffffffffffffffffffffffffffffffffffffffff1673ffffffffffffffffffffffffffffffffffffffff16815260200190815260200160002060006101000a81548160ff02191690831515021790555050565b6000604051905090565b600080fd5b600080fd5b600073ffffffffffffffffffffffffffffffffffffffff82169050919050565b60006109d4826109a9565b9050919050565b6109e4816109c9565b81146109ef57600080fd5b50565b600081359050610a01816109db565b92915050565b600060208284031215610a1d57610a1c61099f565b5b6000610a2b848285016109f2565b91505092915050565b600081519050919050565b600082825260208201905092915050565b60005b83811015610a6e578082015181840152602081019050610a53565b60008484015250505050565b6000601f19601f8301169050919050565b6000610a9682610a34565b610aa08185610a3f565b9350610ab0818560208601610a50565b610ab981610a7a565b840191505092915050565b610acd816109c9565b82525050565b600060c0820190508181036000830152610aed8189610a8b565b90508181036020830152610b018188610a8b565b90508181036040830152610b158187610a8b565b90508181036060830152610b298186610a8b565b9050610b386080830185610ac4565b81810360a0830152610b4a8184610a8b565b9050979650505050505050565b60008060408385031215610b6e57610b6d61099f565b5b6000610b7c858286016109f2565b9250506020610b8d858286016109f2565b9150509250929050565b60008115159050919050565b610bac81610b97565b82525050565b6000602082019050610bc76000830184610ba3565b92915050565b600080fd5b600080fd5b7f4e487b7100000000000000000000000000000000000000000000000000000000600052604160045260246000fd5b610c0f82610a7a565b810181811067ffffffffffffffff82111715610c2e57610c2d610bd7565b5b80604052505050565b6000610c41610995565b9050610c4d8282610c06565b919050565b600067ffffffffffffffff821115610c6d57610c6c610bd7565b5b610c7682610a7a565b9050602081019050919050565b82818337600083830152505050565b6000610ca5610ca084610c52565b610c37565b905082815260208101848484011115610cc157610cc0610bd2565b5b610ccc848285610c83565b509392505050565b600082601f830112610ce957610ce8610bcd565b5b8135610cf9848260208601610c92565b91505092915050565b60008060008060008060c08789031215610d1f57610d1e61099f565b5b600087013567ffffffffffffffff811115610d3d57610d3c6109a4565b5b610d4989828a01610cd4565b965050602087013567ffffffffffffffff811115610d6a57610d696109a4565b5b610d7689828a01610cd4565b955050604087013567ffffffffffffffff811115610d9757610d966109a4565b5b610da389828a01610cd4565b945050606087013567ffffffffffffffff811115610dc457610dc36109a4565b5b610dd089828a01610cd4565b9350506080610de189828a016109f2565b92505060a087013567ffffffffffffffff811115610e0257610e016109a4565b5b610e0e89828a01610cd4565b9150509295509295509295565b7f4e487b7100000000000000000000000000000000000000000000000000000000600052602260045260246000fd5b60006002820490506001821680610e6257607f821691505b602082108103610e7557610e74610e1b565b5b50919050565b7f50617469656e7420616c72656164792072656769737465726564000000000000600082015250565b6000610eb1601a83610a3f565b9150610ebc82610e7b565b602082019050919050565b60006020820190508181036000830152610ee081610ea4565b9050919050565b60008190508160005260206000209050919050565b60006020601f8301049050919050565b600082821b905092915050565b600060088302610f497fffffffffffffffffffffffffffffffffffffffffffffffffffffffffffffffff82610f0c565b610f538683610f0c565b95508019841693508086168417925050509392505050565b6000819050919050565b6000819050919050565b6000610f9a610f95610f9084610f6b565b610f75565b610f6b565b9050919050565b6000819050919050565b610fb483610f7f565b610fc8610fc082610fa1565b848454610f19565b825550505050565b600090565b610fdd610fd0565b610fe8818484610fab565b505050565b5b8181101561100c57611001600082610fd5565b600181019050610fee565b5050565b601f8211156110515761102281610ee7565b61102b84610efc565b8101602085101561103a578190505b61104e61104685610efc565b830182610fed565b50505b505050565b600082821c905092915050565b600061107460001984600802611056565b1980831691505092915050565b600061108d8383611063565b9150826002028217905092915050565b6110a682610a34565b67ffffffffffffffff8111156110bf576110be610bd7565b5b6110c98254610e4a565b6110d4828285611010565b600060209050601f83116001811461110757600084156110f5578287015190505b6110ff8582611081565b865550611167565b601f19841661111586610ee7565b60005b8281101561113d57848901518255600182019150602085019450602081019050611118565b8683101561115a5784890151611156601f891682611063565b8355505b6001600288020188555050505b505050505050565b600060208201905081810360008301526111898184610a8b565b90509291505056fea2646970667358221220ed0c699ff3f7b30f86c0e021ed74347e838f719d03b2a6318af9da7d36332f9864736f6c63430008130033",
  "immutableReferences": {},
  "source": "// SPDX-License-Identifier: MIT\r\npragma solidity ^0.8.19;\r\n\r\ncontract PatientRegistry {\r\n    struct Patient {\r\n        string name;\r\n        string dateOfBirth;\r\n        string homeAddress;\r\n        string phoneNumber;\r\n        address walletAddress;\r\n        string gender;\r\n    }\r\n\r\n    mapping(address => bool) public isPatient;\r\n    mapping(address => Patient) public patients;\r\n    mapping(address => mapping(address => bool)) private canCreate;\r\n    event PatientRegistered(address indexed patientAddress, string name);\r\n\r\n    function registerPatient(\r\n        string memory _name,\r\n        string memory _dateOfBirth,\r\n        string memory _homeAddress,\r\n        string memory _phoneNumber,\r\n        address _walletAddress,\r\n        string memory _gender\r\n    ) external {\r\n        require(\r\n            patients[_walletAddress].walletAddress != _walletAddress,\r\n            \"Patient already registered\"\r\n        );\r\n\r\n        Patient memory newPatient = Patient({\r\n            name: _name,\r\n            dateOfBirth: _dateOfBirth,\r\n            homeAddress: _homeAddress,\r\n            phoneNumber: _phoneNumber,\r\n            walletAddress: _walletAddress,\r\n            gender: _gender\r\n        });\r\n\r\n        patients[_walletAddress] = newPatient;\r\n        isPatient[_walletAddress] = true;\r\n        emit PatientRegistered(_walletAddress, _name);\r\n    }\r\n\r\n    function isRegisteredPatient(\r\n        address _walletAddress\r\n    ) external view returns (bool) {\r\n        return isPatient[_walletAddress];\r\n    }\r\n\r\n    function givepermissioncreate(address _walletAddress) public {\r\n        canCreate[msg.sender][_walletAddress] = true;\r\n    }\r\n\r\n    function revokepermissioncreate(address _walletAddress) public {\r\n        canCreate[msg.sender][_walletAddress] = false;\r\n    }\r\n\r\n    function haspermission(\r\n        address patientaddress,\r\n        address _walletAddress\r\n    ) external view returns (bool) {\r\n        return canCreate[patientaddress][_walletAddress];\r\n    }\r\n}\r\n",
  "sourcePath": "D:\\final-project4\\src\\contracts\\PatientRegistry.sol",
  "compiler": {
    "name": "solc",
    "version": "0.8.19+commit.7dd6d404.Emscripten.clang"
  },
  "schemaVersion": "3.4.13",
  "updatedAt": "2023-11-07T09:18:38.540Z",
  "networkType": "ethereum",
  "devdoc": {
    "kind": "dev",
    "methods": {},
    "version": 1
  },
  "userdoc": {
    "kind": "user",
    "methods": {},
    "version": 1
  }
}